:020000040800F2
:10000000700A0020810200086B400008353B0008A0
:10001000694000082F2100086D440008000000001E
:100020000000000000000000000000006F40000819
:1000300031210008000000006D40000871400008F8
:100040009B0200089B0200089B0200089B0200081C
:100050009B0200089B0200089B0200089B0200080C
:100060009B0200089B0200089B0200089B020008FC
:100070009B0200089B0200089B0200089B020008EC
:100080009B0200089B0200089B0200089B020008DC
:100090009B0200089B0200089B0200089B020008CC
:1000A0009B0200089B0200089B0200089B020008BC
:1000B000D54000089B0200089B0200089B02000834
:1000C0009B0200089B0200089B0200089B0200089C
:1000D0009B020008614400089B0200089B02000884
:1000E0009B0200089B0200089B0200089B0200087C
:1000F0009B0200089B0200089B0200089B0200086C
:100100009B0200089B0200089B0200089B0200085B
:100110009B0200089B0200089B0200089B0200084B
:100120009B0200089B0200089B0200089B0200083B
:1001300000F002F800F094F80AA090E8000C824465
:100140008344AAF10107DA4501D100F089F8AFF242
:10015000090EBAE80F0013F0010F18BFFB1A43F0A5
:1001600001031847A06D0000C06D0000103A24BFC5
:1001700078C878C1FAD8520724BF30C830C144BF0C
:1001800004680C607047000000230024002500264E
:10019000103A28BF78C1FBD8520728BF30C148BFEA
:1001A0000B6070476E2900F0FB82702900F03D84DF
:1001B000662906F04985652906F04685672906F017
:1001C0004385612906F0428503681B0A28BF41F078
:1001D0008001692900F0A882642900F0A5827529B0
:1001E00000F0A2826F2900F0CA83782900F0098408
:1001F000E92900F06583E42900F06283F52900F025
:100200005F83EF2900F0C783F82900F008840368B2
:10021000DB0928BF41F08001632901F08181732946
:1002200001F08681E32901F09181F32901F09681A3
:10023000002070471FB59DE8030000F0ABF901F006
:10024000E7F904000020002105F0E4FD401C606097
:100250000020002105F0C8FDE0601FBD10B510BDF5
:1002600001F0A8F91146FFF7E5FF04F02BFE01F0BD
:1002700085FA03B4FFF7F2FF03BC01F0B5FA000002
:100280000948804709480047FEE7FEE7FEE7FEE72A
:10029000FEE7FEE7FEE7FEE7FEE7FEE70448054966
:1002A000054A064B70470000D340000831010008A2
:1002B00070040020700A00207006002070060020E4
:1002C00070B5A0FB0140B4F1805170F1000024BF73
:1002D000002070BD204600F007F805001CBF214635
:1002E00000F0A4FC284670BD70B5064600F036F953
:1002F000056806F10B0020F00704B4429CBF002003
:1003000070BD2B466A68BAB11068A04210D304F1E0
:10031000080188423CBF5068586007D351681019E3
:1003200041601168091B016058601460101D70BDA8
:1003300013465268002AE7D12146284600F016F9F4
:100340000028DED170BDB2F120030AD5C2F120032E
:1003500020FA02F001FA03F321FA02F140EA030065
:10036000704721FA03F04FF0000170471CB50C46AE
:10037000064B7B4469460090204600F02AFA04466A
:100380000020694600F038FA20461CBD83040000B6
:1003900040EA010310B59B070FD1042A0DD310C802
:1003A00008C9121F9C42F8D020BA19BA884201D954
:1003B000012010BD4FF0FF3010BD1AB1D30703D09C
:1003C000521C07E0002010BD10F8013B11F8014B52
:1003D0001B1B07D110F8013B11F8014B1B1B01D16E
:1003E000921EF1D1184610BD40EA0103024630B515
:1003F0009B0710D14FF0013400E008C208C91D1B53
:100400009D4315EAC41FF8D013F0FF0102F8011B49
:100410000DD01B0AF8E711F8013B002B02F8013B55
:1004200005D011F8013B002B02F8013BF3D130BDA0
:1004300010B5431C02E010F8011B71B18107FAD11D
:100440004FF0013202C88C1A8C4314EAC211F9D061
:10045000C01A0A0603D0C01E10BDC01A10BD0A047F
:1004600001D0801E10BD0902FCD0401E10BD032A21
:1004700040F2308010F0030C00F0158011F8013BC1
:10048000BCF1020F624498BF11F801CB00F8013BA8
:1004900038BF11F8013BA2F1040298BF00F801CB6C
:1004A00038BF00F8013B11F0030300F08D83083AD8
:1004B000C0F0088051F8043B083A51F804CBA0E89A
:1004C0000810F5E7121D5CBF51F8043B40F8043BEF
:1004D000AFF30080D20724BF11F8013B11F801CB24
:1004E00048BF11F8012B24BF00F8013B00F801CBF5
:1004F00048BF00F8012B704702F0FF0343EA0322D4
:1005000042EA024200F094BB4FF0000200B51346ED
:1005100094469646203922BFA0E80C50A0E80C5023
:10052000B1F12001BFF4F7AF090728BFA0E80C50D4
:1005300048BF0CC05DF804EB890028BF40F8042BCD
:1005400008BF704748BF20F8022B11F0804F18BF3A
:1005500000F8012B7047704770477047004870479C
:1005600018040020704770477047704738B504463C
:100570000A4600206946AFF30080002808BF38BD56
:1005800002460099204600F07BFB012038BD012087
:1005900001F008B8F8B5AFF30080054600200C461E
:1005A000102000BF0646A819A0420DD93246694660
:1005B0000020AFF30080070008BF00F0F3FF0098B1
:1005C000A04218BF0546C419FFF7C8FF05600746DB
:1005D000F01D20F007004619284600F00AF8B44242
:1005E00008BFF8BDA21B31463868BDE8F84000F0EE
:1005F00047BB00210160C0E901107047102070471F
:1006000070B50446051FFFF7A9FF0068002C14BF52
:10061000446870BD002C18BFAC423CBF20466468E3
:10062000F8D301680A18AA4218BF456003D12A68A6
:1006300005461144016028684119A1421CBF6C6045
:1006400070BD6168696021680844286070BD10B59C
:1006500000F012FB006810BD10B5044600F00CFB62
:10066000046010BD70B5044685690068C10601D5F7
:10067000302600E02026C00707D070BDD4E9012154
:1006800030469047206A401C20626D1EF6D570BD32
:1006900070B5044685690078C00707D170BDD4E9FC
:1006A000012120209047206A401C20626D1EF6D553
:1006B00070BD09684A0501D540B27047C905FCD52F
:1006C00000B2704709684A0501D5C0B27047C90534
:1006D000FCD580B2704770B50C460546012A05D09E
:1006E0002878800600D5EA69002302E0012305E0AE
:1006F0005B1C934202D2E05C0028F9D1A869E6189D
:10070000C01AA861286A184428622846FFF7AAFF81
:1007100004E0D5E9012114F8010B9047B442F8D365
:100720002846FFF7B5FF70BD2DE9F04106460024CD
:1007300010687529314616A510D0FFF7BAFF0028BA
:1007400002DA404213A507E031688A0701D512A5F5
:1007500002E0490704D511A5012401E0FFF7B2FF2B
:1007600000210A2206F1240709E0B0FBF2FCB0FBED
:10077000F2F302FB1C00303078541846491C002864
:10078000F3D123462A463046BDE8F04100F0D7BAFF
:10079000000000002D0000002B00000020000000E1
:1007A00011680268006A530501D508700AE0D30594
:1007B00001D5088006E0130603D5C217C1E900027F
:1007C00000E008600120704701694A1C0261087856
:1007D000704700B58FB0CDE9013100210591054981
:1007E0007944CDE903101146684600F029F90FB0AD
:1007F00000BD0000E5FFFFFF0A6802F8010B0A6078
:10080000704700002DE9FF5F15468A460446DFF871
:10081000AC80F8440027D8E900103E46CDE900102E
:1008200010E03AF816106A4602A800F09BFE411C40
:1008300007D02178890603D5E269391891420DD88D
:100840000744761C2078800602D5E069B84205DDB1
:10085000AE42E6DB3AF816000028E2D1A069C01BE0
:10086000A0612046FFF7FEFED8E90010CDE9001098
:10087000002017E03AF818106A4602A800F072FE4D
:10088000B0F1FF3F81460BD000250DF1080B05E0CC
:10089000D4E901211BF8050090476D1C4D45F7D3A5
:1008A00008F10100B0428046E4DB206A384420624F
:1008B0002046FFF7EDFEBDE8FF9F0000E265000067
:1008C0002DE9F0418046D21D22F007020025D2E931
:1008D0000002F52915A614D0011E72F1000106DAF6
:1008E0000023D0EB030063EB020211A608E0D8F866
:1008F00000108B0701D50FA602E0490701D50EA60F
:1009000001251146002408F1240704E000F0D2F983
:1009100030323A55641C50EA0102F7D12B46324678
:1009200021464046BDE8F04100F009BA0000000051
:100930002D0000002B0000002000000030B400213A
:1009400000F1240408E002F00705D208303542EA3D
:100950004372DB086554491C52EA0305F3D104686D
:10096000002310A2250707D5A40600D421B1C4692D
:1009700001230DA2641EC46130BC00F0E0B910B5C3
:10098000044621461068FFF79DFE02462046BDE85A
:1009900010400023D2E7D21D22F00701D1E9002345
:1009A000CCE700000000000030000000F0B40D466D
:1009B0000188090502D5214C7C4402E01F4C7C448F
:1009C0000E34002100F1240608E002F00F0712099E
:1009D000E75D42EA03721B097754491C52EA030798
:1009E000F3D102780023120704D5702D06D009B187
:1009F000022311342246F0BC00F0A1B901231034C7
:100A0000F8E770B504460D4621461068FFF75AFE18
:100A1000024629462046BDE870400023C6E7D21DA5
:100A200022F00703D3E90023C0E70368126843F00C
:100A3000200303600823C3610023B7E74464000078
:100A40002DE9F05F894604464FF0000ADFF874B1E3
:100A5000FB44C0F820A02046E1688847002874D0F5
:100A6000252806D0D4E901219047206A401C206245
:100A7000F1E700265F462046E168884720280546C2
:100A800007DB312D05D2781910F8200C08B1064388
:100A9000F1E7B00701D526F00406C4F81CA0002732
:100AA000C4F818A02A2D09D0284603F079FD38B3E0
:100AB00004EB8708303DC8F8185019E059F8041BBA
:100AC000204604EB87029161E1688847012F0546C3
:100AD00018D1E069002820DA26F020061DE0D8F8B9
:100AE000180000EB800005EB40003038C8F8180013
:100AF0002046E1688847054603F052FD0028EED104
:100B0000012F0AD02E2D08D12046E16888477F1C8E
:100B10000546022F46F02006C4DBA069002803DA50
:100B2000404246F00106A061F00701D026F0100611
:100B30006C2D0BD0682D09D04C2D39D06A2D35D0B5
:100B4000742D35D07A2D33D016E038E0E1682F4689
:100B500020468847B842054609D16C2F26D04FF46D
:100B60008060E168064320468847054604E06C2F14
:100B70001AD04FF4807006430DB3A5F14100192837
:100B800002D8203546F400664A46294620462660AB
:100B90004E46FFF707FB80B101280BD0F61D26F06B
:100BA000070000F1080956E74020E4E78020D8E775
:100BB0000020D6E706F104094DE7284652E7206AEF
:100BC000BDE8F09FD463000010B5203AC0F00B8060
:100BD000B1E81850203AA0E81850B1E81850A0E841
:100BE0001850BFF4F5AF5FEA027C24BFB1E818509B
:100BF000A0E8185044BF18C918C0BDE810405FEA0B
:100C0000827C24BF51F8043B40F8043B08BF704786
:100C1000D20728BF31F8023B48BF11F8012B28BF8B
:100C200020F8023B48BF00F8012B70474FF000024C
:100C30000429C0F0128010F0030C3FF467ACCCF133
:100C4000040CBCF1020F18BF00F8012BA8BF20F85C
:100C5000022BA1EB0C01FFF759BC5FEAC17C24BF5A
:100C600000F8012B00F8012B48BF00F8012B70475A
:100C7000004870471004002000487047100400200E
:100C8000034640688C46002818BF88423CBF034694
:100C90004068F8D318681844884207D00CF1030064
:100CA00020F00700001D411A521A0146081D0A6073
:100CB000FFF7A6BC30B5B0F10A024FEA900E71F111
:100CC00000034EEA817EB0EB0E0061EB91014FEA2A
:100CD000101E4EEA017E10EB0E0041EB11114FEA9F
:100CE000102E4EEA016E10EB0E0041EB11214FEA7F
:100CF000104E4EEA014E10EB0E0041EB1141401830
:100D000041F100014FEAD00040EA41704FEAD101C1
:100D100010EB80054FEA810444EA907444EB01042F
:100D20006D1944EB0404521BA3414FF0000348BF6C
:100D30000A3200D530BD401C41F1000130BD2DE923
:100D4000F0470D4699469246044600F12408016892
:100D5000880604D5E06921F01001216000E001203F
:100D6000A84201DD471B00E00027A1697A1902EBC8
:100D70000900081AA0612078C00602D42046FFF7B7
:100D800071FC002608E0D4E901211AF8060090471A
:100D9000206A401C761C20624E45F4DB2078C00699
:100DA0000AD52046FFF75EFC06E0D4E90121302099
:100DB0009047206A401C2062381EA7F10107F4DC2E
:100DC00007E0D4E9012118F805009047206A401C8B
:100DD0002062281EA5F10105F3DC2046FFF758FC30
:100DE0002078000602D50220BDE8F0870120FBE74D
:100DF00070472DE9FF4F0C461E464FF0FF378BB072
:100E0000D2E90001DDF860800A908A46C1F30A55F4
:100E100005B93D46002108464FF00000BAF1000F29
:100E200000F4400005DA00EB80004FF4400101EAD5
:100E300050004FEA9059B9F1010F00DDB9460A9808
:100E400050EA4A000ED044F61050A5F2FF35454353
:100E50002F14B8F1000F1ED07542291E1EDDC9F1F6
:100E600000021CE0B8F1010F4FF0000001D030216A
:100E700003E0F24305E02154401CB042FBDB304666
:100E80000022002121540B99C1F80880C1E90020FB
:100E90000FB0BDE8F08FBD1B6D1CDEE74A4600DADF
:100EA000694206A800F0F8FB06AB93E8070003AB25
:100EB00083E8070050460A9900F0FDFC8DE8070022
:100EC000A0F500501F3800900398002D0ADD42F273
:100ED0001F014A460844002303A90390684600F016
:100EE00066FF09E0A0F500504A461F38002303A919
:100EF0000390684600F070FF8DE807000004000CC6
:100F000003D04FF0FF30410800E01046B8F1000F69
:100F100003D00022009215461EE0751E05D4FFF78F
:100F2000C9FE303262556D1EF9D5B3460122084321
:100F300002D000227F1C04E02078302801D100225A
:100F40007F1E002A099784D01DE0112D07DAFFF7D4
:100F5000B1FE303262556D1C50EA0102F5D10843F2
:100F600002D00098C8B10EE00021681E05E0235CA5
:100F7000625C63542254401E491C8142F7DBAB463D
:100F8000A81B401E0990002004F80B000B98099A3A
:100F9000C0F80880C0E9002B7AE711264FF000085E
:100FA00057E72DE9F04F88460446D21D22F007018D
:100FB00091B0D1E90001CDE90A0103F058FA0246E7
:100FC0000B98C00F01D02D2007E02068810701D5C4
:100FD0002B2002E0202101EAC000032A099001D061
:100FE000072A05DB03464146204600F015FB0BE1CE
:100FF0002078800601D5E06900E00620B8F1650F91
:10100000814606D0B8F1660F18D0B8F1670F70D1DD
:1010100031E00020B9F1110F009001DB112301E054
:1010200009F101030AAA01A90CA8FFF7E2FEDDE914
:101030000C70002609F10105834647E001204B466C
:1010400000904FF000470AAA01A90CA8FFF7D1FEB3
:10105000DDE90DB00C995D46002610B909F10100DB
:101060000D18B9EB050003D4C0F1FF3609F10105F5
:10107000A5EB09002BE0B9F1010F01DA4FF00109EE
:101080000020B9F1110F0090484601DD112300E066
:1010900003460AAA01A90CA8FFF7ABFEDDE90C7014
:1010A0004D4600268346207800070AD4AB4500DA77
:1010B0005D4601A8012D04DD411911F8011C3029FC
:1010C00007D04F4502DA17F1040F04DA01208246F7
:1010D0000FE06D1EEEE7002F02DCED1B3E4403E047
:1010E000781CA84200DD7D1CB81B00F1010A4FF0FE
:1010F00000472078000703D4AA4501DB4FF0FF3AF0
:101100000021B7F1004F0DF143088DF8431024D0B2
:1011100002202B23002F01DA7F422D230A21021EF9
:10112000A0F1010000DC5FB197FBF1FC97FBF1F24D
:1011300001FB1C7C17460CF1300C08F801CDEEE7E2
:10114000A8F1010003702188090501D5452100E0BF
:101150006521A0F1010800F8011C09980FA9A1EB75
:101160000807FF1D00B10120411901EBEA70A169D8
:101170003844081A401EA0612078C00602D42046D8
:10118000FFF770FA099828B1D4E901219047206A45
:10119000401C20622078C00622D52046FFF762FA64
:1011A0001EE0002E04DBB34502DD01A8805D00E0F7
:1011B0003020D4E901219047206A401C2062761C2F
:1011C000AAF101005FEA000A0AD100F021FAC06822
:1011D0000168405CD4E901219047206A401C2062EC
:1011E000281EA5F10105DCDC07E0D4E9012118F88F
:1011F000010B9047206A401C2062381EA7F10107AE
:10120000F3DC2046FFF744FA032011B041E600006A
:101210002DE9F04F04460D46D21D22F0070089B09B
:10122000D0E900974846394603F021F90246F80F05
:1012300001D02D2307E02068810701D52B2302E090
:10124000202101EAC0038DF820300BB1012000E01D
:101250000020032A824601D0072A04DB29462046C3
:1012600000F0DAF93FE12078800601D40D2500E096
:10127000E569C7F30A560D2D49DA00214FEA175BDD
:1012800008464FF00000002F00F4400007DA00EBA2
:1012900080004FF4400100EBD07001EA600081153E
:1012A000012901DD4FF0FF3100224FEA850CBCF12E
:1012B000180F06D31346ACF118004FF08052C2400D
:1012C00003E04FF4801323FA0CF30CF10C0CBCF187
:1012D000200F04D3ACF1200C09FA0CF001E007FA5E
:1012E0000CF000294FF0004801DD18B90FE00ED1D5
:1012F00040450CD319EB02095F4121B9404502D1A9
:101300009F4329EA0209BBEB175F00D0761C2088B7
:10131000000502D57B48784402E07A4878441938C1
:1013200008AA302302F80A30037C0AF10101002EDA
:101330000AF1020A53546A4602DC4FF0300101E020
:101340004FF031014FF001088DF8001002D0A6F2E5
:10135000FF3603E059EA470100D06B4E002D02DC56
:101360002178090704D54FF002082E218DF80110CD
:10137000C44600210BE0C7F303433F01C35C491C93
:101380006D1E02F80830052908F1010801DA002D68
:10139000F1DC00210CE000EB1973491C1B786D1E79
:1013A000082902F808304FEA091908F1010801DAA2
:1013B000002DF0DC21688B0602D516E0A8F10108AB
:1013C000E04505DD02EB080313F8013C302BF5D0B6
:1013D000B8F1000F09DD02EB080313F8013C2E2BD6
:1013E00003D1090701D4A8F10108002D05DD3E2134
:1013F00002F808106D1E08F10108407C002E02F86A
:10140000080008F1010804DA2D20764202F80800ED
:1014100002E02B2002F808000A214FF47A7086427D
:1014200008F101080BDB96FBF0F3303302F80830CB
:1014300096FBF0F308F1010800FB136601E0642E4F
:101440000CDB642096FBF0F3303302F8083096FB97
:10145000F0F308F1010800FB136601E00A2E06DB39
:1014600096FBF1F0303002F8080008F1010896FB15
:10147000F1F001FB1060303002F80800A16908F1BA
:10148000010808EB050202EB0A00081AA0612078A7
:10149000C00602D42046FFF7E5F8216A08AE01EB4A
:1014A0000A00206204E0D4E9012116F8010B9047FC
:1014B000BAF1010AF7D22078C00602D52046FFF71C
:1014C000D1F86E4609E016F8010B3E280FD0D4E99A
:1014D00001219047206A401C2062B8F10108F2D235
:1014E0002046FFF7D5F809B00320BDE8F08F206A49
:1014F0002844206203E0D4E90121302090476D1E8A
:10150000EBD3F8E7415B000002FCFFFF10B5436935
:1015100013B1AFF3008001E0FFF7DDF8012010BD4B
:10152000127800F124010A7000224A700122EDE7CE
:1015300011684FF0FF32E9E710B5436913B1AFF31B
:10154000008001E0FFF75EF9012010BD128800F174
:10155000240182840022C2840122EDE711684FF049
:10156000FF32E9E770B516460C46054600F048F82C
:10157000036893F80101012806D0FF2C0FD8185DED
:1015800068B101202C7070BDD3F8070132462146A6
:1015900003F2071303442846BDE8704018474FF094
:1015A000FF3070BD10B500F0F7F8BDE8104000F056
:1015B000EEB870477546FFF75BFBAE46050069461F
:1015C000534620F00700854618B020B5FEF766FEAA
:1015D000BDE820404FF000064FF000074FF0000834
:1015E0004FF0000B21F00701AC46ACE8C009ACE8B5
:1015F000C009ACE8C009ACE8C0098D4670470000DE
:1016000010B500F005F8001D10BD00BF094800002E
:1016100000487047300400202DE9F0411F46044681
:1016200003260168072A01F4006004DB08B116A54F
:1016300005E016A503E008B115A500E015A521F009
:1016400010002060A069C01EA0610FB1401EA06103
:101650002046FFF707F84FB1D4E9012138469047FB
:10166000206A401C2062C01C206206E0206AFAE763
:10167000D4E9012115F8010B9047761EF8D22046D7
:10168000FFF706F8BDE8F0814E414E006E616E0036
:10169000494E4600696E66002DE9F04781461646C0
:1016A0008AB0354878440DC88DE80D00324878443A
:1016B000801C03AC0DC884E80D0041F69B30084443
:1016C000372190FBF1F290FBF1F5A5F1800501FBCC
:1016D00012041B3C02D56442012000E00020DFF828
:1016E00098A080460027FA44AAF1BE0A0EE0E0075F
:1016F0000AD03246684607EB470101230AEB810115
:1017000000F06AFB8DE8070064107F1C002CEED10E
:10171000194F7F44AE3F19E0E80715D007EB0410DE
:101720000DF1180A90E80E008AE80E00C068F04239
:1017300001D1981908903246012306A903A800F0A8
:101740004BFB03AB83E807006D10641C002DE3D155
:101750004FF0010332466946B8F1000F03A802D0EA
:1017600000F025FB01E000F037FBC9E90001C9F8F2
:1017700008200AB0BDE8F0874458000010B50446C0
:10178000AFF300802046BDE81040FEF772BD002890
:1017900001D000F029B8704710B5012805D000210C
:1017A00003A000F027F8012010BD09A1F8E7000010
:1017B00053494752544D454D3A204F7574206F663A
:1017C0002068656170206D656D6F727900000000A2
:1017D0003A2048656170206D656D6F727920636F86
:1017E000727275707465640001491820ABBEFEE723
:1017F0002600020070B505460C460A2000E06D1C6C
:1018000000F052F835B128780028F8D102E0641CC5
:1018100000F04AF814B120780028F8D1BDE87040F3
:101820000A2000F041B800004FF0013C50F8042BB2
:1018300051F8043B9A4221D1A2EB0C03934313EAE3
:10184000CC1317D150F8042B51F8043B9A4215D110
:10185000A2EB0C03934313EACC130BD150F8042BE7
:1018600051F8043B9A4209D1A2EB0C03934313EACB
:10187000CC13DBD04FF00000704700BFD01A01BA84
:10188000B1FA81F101F0180122FA01F0CB40C1F167
:101890002001DBB2C0B2C01A2CFA01F3D11A914375
:1018A00011EAC311E6D1704708B569468DF800000A
:1018B0000320ABBE08BD5FEA400C08BF91F0000FEB
:1018C0004FEA8C234FEAC12243EA51514FEA1C50A0
:1018D00018BF00F5F0404FEA300018BF41F000415A
:1018E0005FEA6C5C00F02980BCF1FF3F08BF40F06C
:1018F00080407047130C06BF12044FF0100C4FF0DD
:10190000000C130E04BF12020CF1080C130F04BFDD
:1019100012010CF1040C930F04BF92000CF1020CA5
:10192000D30F04BF52000CF1010C11464FF000021E
:10193000A0F11F00A0EB0C00704711F0004F08BF92
:10194000704731F000413FF4D5AF0B0C06BF0904DE
:101950004FF0100C4FF0000C0B0E04BF09020CF1FD
:10196000080C0B0F04BF09010CF1040C8B0F04BF12
:1019700089000CF1020CCB0F04BF49000CF1010CE3
:10198000CCF12003A0EB0C0022FA03F302FA0CF2D4
:1019900041EA030100F10100704720F07F4C80EA2A
:1019A000030023F07F47ACEB070303F57C5300F003
:1019B000004003F1FF032DE980494FEA154B09B4BC
:1019C0004FEA144325EA0B4E24EA03480FF204269B
:1019D00006EB132749083E785FEA320203FB0667ED
:1019E000C7F5000707FB06F64FEA54374FEAD6461D
:1019F00006F1020607FB066CCCF1005C4FEA1C47BF
:101A00002CEA074C07FB06F40CFB06F504EB154625
:101A10004FEA961634BF00204FF000404FEAD1370E
:101A200006FB07FC4FEA1C4C0CFB0BF7D21B03FB1D
:101A30000CF761EB07010CFB0EF7B0EB074072EB04
:101A400017420CFB08F734BFA2EB0742B2EB074288
:101A500061EB17414FEA0C444FEA910706FB07FC84
:101A60004FEA1C4C0CFB0BF7B0EBC74072EB573244
:101A700003FB0CF734BFA2EBC742B2EBC74261EBEA
:101A800057310CFB0EF7B0EBC70072EB57720CFB33
:101A900008F734BFA2EBC702B2EBC70261EB577184
:101AA000039F4FEA816141EA921104EBCC044FEAB3
:101AB000D1374FEA826206FB07FC42EA90124FEAF6
:101AC00080604FEA1C4C0CFB0BF7D21B03FB0CF79E
:101AD00061EB07010CFB0EF7B0EB074072EB17420E
:101AE0000CFB08F734BFA2EB0742B2EB074261EBF5
:101AF00017414FEA8C554FEA910704EB9C2406FBF3
:101B000007FC4FEA1C4C0CFB0BF7B0EBC74072EB29
:101B1000573203FB0CF734BFA2EBC742B2EBC7420C
:101B200061EB57310CFB0EF7B0EBC70072EB57724D
:101B30000CFB08F734BFA2EBC702B2EBC70261EBA4
:101B4000577115EB4C254FEA816141EA92114FEA3A
:101B500082624FEAD13742EA901206FB07FC44F159
:101B600000044FEA80604FEA1C4C0CFB0BF7D21BC1
:101B700003FB0CF761EB07010CFB0EF7B0EB074022
:101B800072EB17420CFB08F734BFA2EB0742B2EB33
:101B9000074261EB174115EB1C154FEA813141EA11
:101BA00092414FEA823242EA90424FEA80304FEA55
:101BB0000C7644F1000448EA03434EEA0B484FF028
:101BC000000EB2EB080C71EB030724BF62463946E6
:101BD0004EEB0E0E4FF0000B0018524149414BEBFB
:101BE0000B0BB2EB080C71EB03077BF1000B24BF6E
:101BF000624639464EEB0E0E4FF0000B0018524174
:101C000049414BEB0B0BB2EB080C71EB03077BF17B
:101C1000000B24BF624639464EEB0E0E51EA020716
:101C200018BF46F0010616EB0E7655F1000254F18E
:101C3000000103D5BDE88901BDE80088BDE8890140
:101C4000BDE80048B619524141EB0101A3F101037F
:101C5000704780807F7E7D7C7B7A79787776767519
:101C60007473727171706F6E6E6D6C6C6B6A6A6991
:101C70006868676666656464636362616160605F2B
:101C80005F5E5E5D5D5C5C5B5B5A5A5959585857A4
:101C9000575656555555545453535252525151500C
:101CA00050504F4F4F4E4E4D4D4D4C4C4C4B4B4B5F
:101CB0004A4A4A49494948484847474747464646A5
:101CC00045454544444444434343434242424241E0
:101CD0004141002B9C4630D477002BD01CB54FEAF5
:101CE000370703B44FF010004FF01001BAF1000FA6
:101CF00006D0BCF1000FDCBF40F0080040F0080146
:101D00004FF000000FBCBDE810400BF1010BBBF120
:101D1000010F08BF5FEA170722BF12F1010211F19C
:101D200001014FF0004143F1000300F0004043EA9D
:101D300000007047F9D35708D0E746EA064613F18A
:101D4000400F4FEA16461FDD13F1200FDFBF164389
:101D50000A46002120335B42BED0C3F1200746EA89
:101D6000064602FA07F74FEA164646EA0706C3F1A7
:101D7000200722FA03F201FA07F721FA03F14FF0E4
:101D8000000342EA0702A7E746EA020646EA0646D9
:101D90004FEA164646EA0106BCBF46EA0646360C3E
:101DA0004FF000034FF000024FF0000194E72DE9DF
:101DB000804C9A46934670B491E8380007C831EADF
:101DC000400C48BF34EA430C03D5FFF7E6FDFFF7AC
:101DD00080FFF0BCBDE8008C2DE9804C9A4693460C
:101DE00070B491E8380007C810F0804F08BF13F0B6
:101DF000804F03D100F005F8FFF76BFFF0BCBDE8A2
:101E0000008C20F07F4780EA030023F07F4C07EB33
:101E10000C03A3F57C5300F00040A3F1FE0392F005
:101E2000000F00F0B38095F0000F00F077802DE9EF
:101E300001494FEA11404FEA144621EA004800FBED
:101E400006FC24EA064708FB06F607FB08F800FB39
:101E500007F718EB06484CEB164C4FEA124B18EB01
:101E600007484FEA15464CEB174022EA0B4E0BFB96
:101E700006FC25EA06470EFB06F607FB0EFE0BFBEB
:101E800007F71EEB064E4CEB164C4FF000061EEB10
:101E9000074E4CEB174B18EB0B0840F1000018EB0A
:101EA0000E0B58EB000840F100008F1A4FF00001B4
:101EB0003CBFC943661B14BFB5EB040C00213CBFFB
:101EC000C943F61B4FEA17444EEA8E0E27EA044533
:101ED0004FEA1C4704FB07622CEA074C05FB07F797
:101EE0000CFB05F604FB0CFC16EB074642EB174215
:101EF00016EB0C4642EB1C421BEB060658EB0202AB
:101F0000414146EA9E0601D5BDE80189B619524114
:101F100041EB0101A3F10103BDE801894FEA14453A
:101F20004FEA114724EA054621EA074C05FB07F46E
:101F300006FB07F70CFB06F105FB0CFC11EB074158
:101F400044EB17444FEA124711EB0C4144EB1C449D
:101F500022EA074C05FB07F206FB07F70CFB06F627
:101F600005FB0CFC16EB074642EB174216EB0C4642
:101F700042EB1C456A1854F1000148BF7047B6197E
:101F8000524141EB0101A3F10103704795F0000FAD
:101F900037D04FEA11424FEA144721EA024624EAB9
:101FA000074C02FB07F106FB07F70CFB06F402FBEC
:101FB0000CFC14EB074441EB17414FEA154714EBB7
:101FC0000C4441EB1C4125EA074C02FB07F506FBDC
:101FD00007F70CFB06F602FB0CFC16EB074645EB7D
:101FE000174516EB0C4645EB1C42121951F1000146
:101FF00048BF7047B619524141EB0101A3F10103FB
:1020000070474FEA14454FEA114724EA054621EA92
:10201000074C05FB07F106FB07F70CFB06F24FF038
:10202000000605FB0CFC12EB074241EB174112EBDB
:102030000C4251EB1C4148BF7047921841EB010123
:10204000A3F101037047000010B50446007B617BDB
:1020500041EA002004F04CF94FF03332034B03F017
:10206000ABFF04F001F96081002010BD3333F33F72
:1020700010B5044600F03EF82046FFF7E5FF0020CB
:1020800010BD10B50446012100F043F8032120469D
:1020900000F03FF81021204600F03BF8002010BD72
:1020A0002DE9F0410E460546174614210120FEF7A2
:1020B00007F9041E17D01FB147202072462002E006
:1020C000BA202072B92060723046FEF7B1F9FEF7EF
:1020D0000BF92060002806D031466560FEF784F9D0
:1020E000024820612046BDE8F0810000F120000890
:1020F000FFF7BEBF38B50A2100914468017A00F1AC
:102100000C020223204600F0D9FB002800D0012059
:1021100038BD03B581B00A210091417A406801239E
:1021200002AA00F0F3FC002800D001200EBDFEE75B
:102130007047000006490020C8610648016941F067
:1021400004010161016941F0400101617047000033
:10215000F801002000200240064A0021D161064912
:102160000A6942F002020A614861086940F04000D1
:1021700008617047F801002000200240044B002253
:10218000DA61044A136943F0010313610180704767
:10219000F80100200020024014480022C168CB064C
:1021A000134904D5CA6942F00202CA611022C36809
:1021B0005B0705D5CB6943F00103CB6142F0040214
:1021C000C369DB0707D0CB6943F00403CB61C16966
:1021D00021F00101C161A2F58071013901D0C26015
:1021E0007047C16921F00101C161704700200240C0
:1021F000F801002070B5054600F096FA0646114C2D
:1022000009E0681C07D025B100F08EFA801BA842B7
:1022100001D9032070BDE068C007F2D1E0688006F4
:1022200001D52020E060E068C00605D4E069C00761
:1022300002D1E068400703D5FFF7AEFF012070BD73
:10224000002070BD0020024010B590F8211000223F
:10225000022905D00421816380F82020012010BDCF
:1022600001680B6823F00E030B6001680B6823F014
:1022700001030B6090F84030C46B012101FA03F3B5
:10228000636080F8211080F82020104610BD000007
:102290002DE9F05F90F821100024022903D00421D9
:1022A0008163012485E001680A6822F00E020A6059
:1022B00001680A6822F001020A603F4E3E4FB215E3
:1022C000DFF8F4C0DFF8F090DFF8ECA0DFF8E8B05A
:1022D000DFF8E4E00168783F13011502ACF1640C0B
:1022E000A9F15009AAF13C0AABF1280BAEF1140E8A
:1022F0004FF48018B14227D9B9420ED0614512D0AF
:1023000049451DD0514518D0594518D0714501D1C6
:10231000424615E0294EB14201D1012210E0274E7C
:102320001436B14201D110220AE0244E2836B142BF
:1023300006D0224A3C32914201D11A4600E02A4698
:102340001E49091F0A602BE0B94213D0614517D01E
:10235000494522D051451DD059451DD0714501D167
:1023600042461AE0B14202D14FF0807215E0134E9E
:10237000B14201D1012210E0104E1436B14201D118
:1023800010220AE00D4E2836B14206D00B4A3C32EC
:10239000914201D11A4600E02A46074980394A6035
:1023A000012180F82110002180F82010416B01B13B
:1023B00088472046BDE8F09F8000024008040240A4
:1023C0002DE9F047054626480F460126017E0129E2
:1023D0000FD00121814601762868DFF888804CF211
:1023E0005034022808D0A2462046FFF703FFA8B1C8
:1023F00031E00220BDE8F0872046FFF7FBFE08BB76
:102400000120FFF797FE2046FFF7F4FED8F81010E2
:10241000064621F00401C8F810101CE04FF0FF3010
:102420003860AC6811E02046FFF796FE5046FFF793
:10243000E1FED8F81010060021F00201C8F81010D3
:1024400001D03C6007E004F50064D5E9020100EB2F
:10245000C120A042E7D8002189F818103046C9E70A
:10246000F8010020002002400348016941F080018A
:102470000161002070470000002002402DE9F05F5C
:1024800007461C4888460024017E15461E46012941
:1024900009D00121814601764CF2503A5046FFF7AF
:1024A000A9FE18B122E00220BDE8F09F012F02D062
:1024B000022F00D00427D346DFF83CA02201284693
:1024C0003146FDF740FF81B208EB4400FFF756FEAE
:1024D0005846FFF78FFEDAF8102022F00102CAF802
:1024E000102018B9641CE4B2BC42E7D3002289F87A
:1024F0001820D9E7F80100200020024006490020FA
:102500000A69120607D5054A4A60054A4A60096900
:10251000090600D5012070470020024023016745CD
:10252000AB89EFCD2DE9F84FDFF8C8910024A9F170
:10253000040B23460F2709F1040AABF1040ED1E086
:102540000125A54006EA0502AA4276D1DFF8A8C116
:102550004E68A6EB0C0866452BD00DDC032E34D05C
:1025600005DC36B3012E19D0022E2FD11BE0112E1F
:1025700016D0122E2AD119E0B8F5881F19D006DC22
:10258000B8F5803F15D0B8F5801F1FD111E0B8F520
:10259000001F0ED0B8F5041F18D10AE0CB6815E073
:1025A000CB681B1D12E0CB6808330FE0CB680C33FF
:1025B0000CE08B682BB1012B4FF0080303D0456171
:1025C00004E0042302E0056100E00023FF2A01D8B3
:1025D000064601E000F104064FEA840501D9A5F1A1
:1025E0002005D6F8008007FA05FC28EA0C0803FA53
:1025F00005F548EA0508C6F800804D68ED0070D57D
:102600003E4DAE6946F00106AE61AD6924F00306A9
:1026100005F0010500953A4D06EB050CDCF8085075
:10262000A607360F07FA06F825EA0805DFF8D48072
:10263000404503D14FF0000825E052E0DFF8C880A4
:10264000404502D14FF001081DE0DFF8C080404551
:1026500002D14FF0020816E0DFF8B480404502D105
:102660004FF003080FE0DFF8AC80404502D14FF097
:10267000040808E0DFF8A080404502D14FF00508CB
:1026800001E04FF0060808FA06F848EA0508CCF819
:1026900008804D68D9F80060ED024D4601D516431B
:1026A00000E096432E604D68DAF80060AD025546B2
:1026B00001D5164300E096432E604D68DBF80060BC
:1026C000AD035D4601D5164300E096432E604D688C
:1026D000DEF80060ED03754601D5164300E0964331
:1026E0002E60641C0A681646E2407FF429AFBDE8FC
:1026F000F88F000008040140000011100010024093
:102700000000014000080140000C014000100140A1
:102710000014014000180140001C01400AB1016191
:1027200070470904FBE7000001488068704700001B
:102730000800002070B5040025D094F83D00002565
:1027400020B984F83C50204600F076FA242084F822
:102750003D002068016821F00101016020680168E6
:1027600041F4004101602068016821F400410160EA
:1027700000F0BEFB4D4A6168914201D84C4900E02F
:102780004C49884201D2012070BD4B492368B0FBFF
:10279000F1F15E6826F03F060E435E606368934287
:1027A00006D94FF4967359434FF47A73B1FBF3F1A2
:1027B0002368491C1E6A26F03F063143196261688E
:1027C000914210D84900401EB0FBF1F2521CC2F3F6
:1027D0000B02042A01D2042022E0B0FBF1F0401CDD
:1027E000C0F30B001CE0A268F2B301EBC10303EBE2
:1027F0000116431EB3FBF6F35B1C43F480431B0539
:1028000049D092B301EBC10202EB0111401EB0FBB3
:10281000F1F0401CC0F30B0040F4804040F4004055
:102820002168CA694CF6FF739A431043C861D4E922
:10283000071001432068026822F0C00211430160C2
:10284000D4E9030101432068826848F2FF339A43C8
:1028500011438160D4E9050108432168CA6822F068
:10286000FF021043C86001E00EE016E02068016836
:1028700041F0010101602564202084F83D002563BA
:1028800084F83E50002070BD01EB4106431EB3FBAF
:10289000F6F35B1CB3E70120C2E701EB4101401EE8
:1028A000B0FBF1F0401CC0F30B00B7E7A0860100BD
:1028B00080841E0000093D0040420F002DE9F84FC2
:1028C0000025DDF82890984617468A46044600956C
:1028D000FFF72AFF064694F83D0020287AD11923F5
:1028E000012286492046009601F02CFA0028F5D1F5
:1028F00094F83C0001286DD0012084F83C00206849
:102900000168C90703D1016841F001010160206835
:10291000016821F400610160222084F83D0010204C
:1029200084F83E0025646762A4F82A80608D2085C3
:102930007348E06233464A465146204601F012F998
:1029400000287CD1208DDFF8BC81202768B10128C8
:1029500014D00228206801681ED041F48061016013
:102960002068416980690090BBE020684169816905
:102970000091016841F400710160B2E020680168D3
:1029800021F48061016072B620684169816900911B
:10299000016841F400710AE041F40061016072B61F
:1029A0002068416981690091016821F480610160BA
:1029B00062B696E0032865D801280CD002284B4661
:1029C0004FF000024146204600960BD001F0BAF9C4
:1029D000A8BB0CE090E032464946204601F058FA88
:1029E00068BB71E001F0AEF948BB72B633E0206815
:1029F000016821F48061016072B620680069616A33
:102A00000870606A401C6062208D401E2085608DC9
:102A1000401E60853C4846F2A8110068B0FBF1F00A
:102A2000C0EBC00000EB80000090401E009007D07B
:102A300020684069C04340070DD50098F5E727E0BE
:102A400044F8305F6773A573206940F0200020616F
:102A500062B625731CE02068016841F400710160D2
:102A600020680069616A0870606A401C6062218D9C
:102A7000491E2185618D491E618562B621680969FB
:102A8000017025E032464946204601F001FA10B1B6
:102A90000120BDE8F88F20680069616A0870606AEB
:102AA000401C6062208D401E81B22185608D401ED9
:102AB000608520684269D243520712D4032903D1AA
:102AC000016821F48061016020680069616A087012
:102AD000606A401C6062208D401E2085608D401E13
:102AE0006085208D00287FF465AF84F83D7084F800
:102AF0003E5084F83C50CCE70220CAE702001000A8
:102B00000000FFFF04000100140000202DE9F84F31
:102B10001F4690468A460446DDF82890FFF704FEDB
:102B2000054694F83D0020287FD119230122404911
:102B30002046009501F006F9002876D194F83C0073
:102B4000012872D0012084F83C0020680168C90780
:102B500003D1016841F0010101602068016821F49E
:102B600000610160212084F83D00102084F83E00BF
:102B700000262664C4F824806785608D20852D4852
:102B8000E0622B464A465146204601F061F890B972
:102B9000206841698069009036E02A46494620460F
:102BA00001F0AEF950B1206C042804D1206801680E
:102BB00041F4007101600120BDE8F88F606A21686E
:102BC00000780861606A401C6062618D491E618501
:102BD000218D491E89B2218522685369DB435B0739
:102BE0000BD451B100781061606A401C6062608D46
:102BF000401E6085208D401E20852A46494620467D
:102C000001F074F80028CED1208D0028C5D154F8E9
:102C10003D0B016841F400710160202004F81E0999
:102C2000E67766770020C7E7FFE70220C4E70000E9
:102C3000020010000000FFFF10B586B000210091D7
:102C400001910291039100680F4988421AD10F4CFB
:102C5000A06940F00800A061A069694600F0080082
:102C60000490C02000901220019003200390084897
:102C7000FFF758FCE06940F40010E061E06900F4FF
:102C80000010049006B010BD005400400010024037
:102C9000000C01400248816802781144816070474D
:102CA00008000020074810B5016841F010010160DC
:102CB000032000F075F80F2000F006F800F024F86B
:102CC000002010BD0020024070B50D4D04464FF4A9
:102CD0007A712878B1FBF0F00A490968B1FBF0F08D
:102CE00000F0DCFA48B9102C07D200222146501E11
:102CF00000F036F800206C6070BD012070BD00004F
:102D000008000020140000200C4808B5816941F03B
:102D100001018161816901F001010091C16941F006
:102D20008051C161C06900F0805000900448416842
:102D300021F0E06141F00071416008BD00100240E7
:102D400000000140002809DB00F01F020121914032
:102D50004009800000F1E020C0F800117047000039
:102D6000F0B40E4B1B680C46C3F30223C3F10705F6
:102D7000042D00D90425191D072901D2002300E0E4
:102D8000DB1E012606FA05F1491E214099409E40AE
:102D9000761E16403143F0BC01F07DBB0CED00E027
:102DA000064900F0070208684FF6FF03184040EAA2
:102DB0000220034A10430860704700000CED00E059
:102DC0000000FA052DE9F0470F46050061D0434E9B
:102DD000306800F00700B84209D2306820F00700E0
:102DE00038433060306800F00700B84251D128689D
:102DF0003B4C810712D5400703D5606840F4E06082
:102E000060602878000703D5606840F46050606017
:102E10006068A96820F0F000084360602878C00767
:102E200028D06868012810D02168022810D08907AE
:102E300000292EDA616821F0030101436160FFF788
:102E400073FC804641F288390DE021688903EFE781
:102E50008901EDE7FFF768FCA0EB0801494502D9BD
:102E60000320BDE8F0876068696800F00C00B0EBF3
:102E7000810FEFD1306800F00700B8420BD93068FD
:102E800020F0070038433060306800F00700B84297
:102E900001D00120E5E72878400705D56068E9689A
:102EA00020F4E060084360602878000706D5606879
:102EB000296920F4605040EAC100606000F038F8F1
:102EC0006168084AC1F30311515CC84006490860B3
:102ED00006480068FFF7F8FE0020C2E70020024025
:102EE00000100240526D0008140000200C00002069
:102EF0000448054900684968044AC1F30221515C4D
:102F0000C84070471400002000100240626D0008A5
:102F10000448054900684968044AC1F3C221515C6C
:102F2000C84070471400002000100240626D000885
:102F30000E4A51680E4801F00C03042B11D0082BE7
:102F40000FD10C48C1F38343C903C05C0AD5516853
:102F5000084AC1F34041921E515C054A5043B0FB00
:102F6000F1F07047044948437047000000100240E8
:102F700000127A00426D000800093D002DE9F84F6B
:102F8000040070D02078C04DC00749D06868C0F3F5
:102F90008100012807D06868C0F38100022809D1A8
:102FA0006868C00306D52868800339D560680028A2
:102FB000E7D035E06068B0F5803F0BD010B1B0F5D8
:102FC000A02F11D0286820F480302860286820F4D1
:102FD000802002E0286840F480302860606890B16A
:102FE000FFF7A2FB06460AE0286840F4802028602C
:102FF000F0E700BFFFF798FB801B642873D82868B0
:103000008003F7D50CE0FFF78FFB064605E000BF15
:10301000FFF78AFB801B6428F0D828688003F7D468
:1030200020789A4E80074FF001094FF0000839D5FB
:10303000686810F00C0F07D06868C0F381000228A0
:1030400009D16868C00306D42868800714D52069B0
:10305000012808D110E02069B0B1C6F80090FFF750
:1030600063FB074605E00AE1FFF75EFBC01B022891
:10307000C4D828688007F7D52868616920F0F8006F
:1030800040EAC10028600DE0C6F80080FFF74CFB65
:10309000074604E0FFF748FBC01B022823D8286836
:1030A0008007F7D4207800072CD57948A169D9B1D9
:1030B000C0F80090FFF738FB074604E0FFF734FB49
:1030C000C01B02280FD8686A8007F7D571484FF4F3
:1030D000FA510068B0FBF1F0009000BF0098411E6B
:1030E0000091FAD20EE080E0C0F80080FFF71CFBF0
:1030F000074604E0FFF718FBC01B022875D8686A72
:103100008007F7D42078400760D5E8690027C00021
:1031100008D4E86940F08050E861E869012700F0D0
:10312000805000905C480168C90513D4016883464B
:1031300041F480710160FFF7F7FA824606E000BFB4
:10314000FFF7F2FAA0EB0A0064284ED8DBF8000083
:10315000C005F5D5E06801280AD008B1052813D0CC
:10316000286A20F001002862286A20F0040002E0AA
:10317000286A40F001002862E06841F2883B98B17B
:10318000FFF7D2FA82460BE0286A40F0040028627A
:10319000EEE700BFFFF7C8FAA0EB0A0159455AD87D
:1031A000286A8007F6D50CE0FFF7BEFA824605E0F4
:1031B000FFF7BAFAA0EB0A0159454CD8286A8007F4
:1031C000F6D41FB1E86920F08050E861E06988B367
:1031D0006968C1F38101022944D00228C6F86080E1
:1031E00004D0FFF7A1FA044638E034E0FFF79CFA78
:1031F000074604E0FFF798FAC01B02282BD828687E
:103200008001F7D4206AB0F5803F05D16868A168D5
:1032100020F4003008436860D4E908010843696875
:1032200021F4741108436860C6F86090FFF77CFAD7
:10323000044606E025E000BFFFF776FA001B0228EF
:1032400009D828688001F7D51BE000BFFFF76CFAAA
:10325000001B022802D90320BDE8F88F28688001EE
:10326000F4D40EE00128F7D06868226A00F48031B7
:10327000914204D1616A00F47010884201D00120AB
:10328000EAE70020E8E700000010024000004242A8
:1032900080044242140000200070004010B5401E1F
:1032A000B0F1807F01D3012010BD4FF0E0246061B8
:1032B0000F21601701F0EFF80020A06107202061C6
:1032C000002010BD7047704770B590F83C20012A6F
:1032D0002CD0012480F83C40022280F83D20036875
:1032E0005A689D6822F070060A6832435A60104B93
:1032F00002689A420ED00F4B9A420BD0B2F1804F27
:1033000008D00D4B9A4205D00C4B9A4202D00C4B80
:103310009A4204D1496825F080031943916080F8EE
:103320003D40002180F83C10084670BD022070BD71
:10333000002C01400034014000040040000800401F
:10334000000C004010B5040003D094F83D0010B10B
:1033500007E0012010BD002084F83C00204600F06A
:103360001FF8022084F83D00211D206800F0B8FEFF
:10337000012084F8460084F83E0084F83F0084F879
:10338000400084F8410084F8420084F8430084F847
:10339000440084F8450084F83D00002010BD000082
:1033A00008B50068B0F1804F12D10A48C16941F0F8
:1033B0000101C161C069002200F0010000900121FB
:1033C0001C20FFF7CDFCBDE808401C20FFF7BABC6D
:1033D00008BD00000010024090F83D10012901D006
:1033E00001207047022180F83D100168CA6842F050
:1033F0000102CA6000680E4988420ED00D49884219
:103400000BD0B0F1804F08D00B49884205D00B4952
:10341000884202D00A49884204D1816801F007013C
:10342000062903D0016841F00101016000207047C6
:10343000002C01400034014000040040000800401E
:10344000000C00400168CA6822F00102CA600168ED
:103450000A6A41F211131A4207D10A6A9B101A42F2
:1034600003D10A6822F001020A60012180F83D10B0
:103470000020704770B5044690F83C0000250128F4
:1034800017D0012684F83C60022084F83D002068B3
:10349000826822F0770222F47F4282600868502816
:1034A00038D00DDC20284FD005DC90B3102811D186
:1034B0004AE0022070BD302846D040280AD13BE0C7
:1034C00060282FD070280DD0B0F5805F03D0B0F504
:1034D000005F12D0012584F83D60002084F83C0094
:1034E000284670BDCB68D1E90121206800F03EFE7E
:1034F0002068816841F0770109E0CB68D1E90121BA
:10350000206800F033FE2068816841F480418160CA
:10351000E1E719E0CA684968206800F039FE5021E7
:10352000206806E0CA684968206800F042FE602111
:10353000206800F025FECEE7CA684968206800F0E0
:1035400027FE40212068F4E7226801461046F0E794
:10355000704770B50446006801694FF00005C94323
:10356000890715D4C168C943890711D4E91E0161CF
:1035700001202077206880698007204602D0FFF76D
:10358000E7FF04E000F098F8204600F096F8257771
:1035900020680169C943490717D4C168C94349076D
:1035A00013D46FF004010161022020772068806944
:1035B00010F4407F204602D0FFF7CAFF04E000F07D
:1035C0007BF8204600F079F8257720680169C94327
:1035D000090716D4C168C943090712D46FF008015E
:1035E0000161042020772068C0698007204602D04E
:1035F000FFF7AEFF04E000F05FF8204600F05DF852
:10360000257720680169C943C90617D4C168C94331
:10361000C90613D46FF010010161082020772068DB
:10362000C06910F4407F204602D0FFF791FF04E00C
:1036300000F042F8204600F040F825772068016944
:10364000C943C90708D1C168C943C90704D1891E44
:103650000161204600F032F820680169C94309067B
:1036600009D4C168C943090605D46FF0800101611E
:103670002046FFF727FE20680169C943490609D49F
:10368000C168C943490605D46FF040010161204675
:1036900000F030F820680169C94389060BD4C1687D
:1036A000C943890607D46FF0200101612046BDE8B7
:1036B0007040FFF708BE70BD704770470A49006848
:1036C000096888420ED109480178491CC9B20170C5
:1036D000642907D1064A01211170002101700248B6
:1036E000FFF7B0BE70470000680100200000002016
:1036F0001C0000207047704770470000F8B5016853
:1037000004460868CA684B6910F00F0F4FF00005B7
:1037100059D003F0010602F49077374365D0C10712
:1037200005D0D10503D5616C41F001016164410709
:1037300005D5D90703D0616C41F0020161648107AE
:1037400005D5D90703D0616C41F00401616401071C
:1037500007D502F02001314303D0616C41F008012C
:103760006164616C00293AD0800604D5900602D5C8
:10377000204600F05FFD20684069616CC0F3801056
:10378000090700D460B3204600F02DFD2068406991
:10379000400621D52068143050E8001F21F0400178
:1037A00040E80012002AF5D1E06BA8B16D494163F1
:1037B000E06BFEF76DFD002811D0E06B416B01B0AE
:1037C000BDE8F040084783060FD593060DD5204687
:1037D000BDE8F84000F02EBD2046FFF78DFFF8BD94
:1037E0002046FFF789FF6564F8BD266B2023012E74
:1037F0007CD1C6067AD5D60678D508684868009088
:1038000048694FF00206400640D5E16B0868406801
:103810000004000CE8D0A28D8242E5D9E0858869D9
:1038200020282DD020680C3050E8001F21F4807132
:1038300040E80012002AF5D12068143050E8001F3B
:1038400021F0010140E80012002AF5D1206814306F
:1038500050E8001F21F0400140E80012002AF5D195
:1038600084F84230256320680C3050E8001F21F0B6
:10387000100140E80012002AF5D1E06BFEF7E4FCED
:103880006663A08DE18D401A81B22AE0A08DE18DA2
:10389000401A81B2E08D0028A6D00029A4D0226869
:1038A0000C3252E8000F20F4907042E80007002F1D
:1038B000F5D12068143050E8002F22F0010240E8D2
:1038C0000027002FF5D184F84230256320680C30A2
:1038D00050E8002F22F0100240E80023002BF5D121
:1038E00066632046FFF707FFF8BDFFE705062BD507
:1038F000150629D594F841002128F5D1A068B0F526
:10390000805F01D12069B0B1206A411C2162216829
:1039100000784860E08C401E0004000CE084E3D195
:103920002068C16821F08001C1602068C16841F051
:103930004001C160D8E7206A0088C0F308004860F1
:10394000206A801C2062E5E74006CDD55006CBD525
:10395000CA68204622F04002CA6084F8413000F074
:10396000E8F8C1E7D741000870B5040004D094F826
:103970004100002510B106E0012070BD84F84050E0
:10398000204600F023F8242084F841002068C16814
:1039900021F40051C160204600F0AEFC20680169AE
:1039A00021F4904101612068416921F02A014161BF
:1039B0002068C16841F40051C1606564202084F82A
:1039C000410084F842006563002070BD30B585B0C9
:1039D00000240094019402940394006818498842DA
:1039E0002CD11848816941F480418161816901F4D9
:1039F00080410491816941F0040181618069124D27
:103A000000F0040004904FF4007000900220019038
:103A10000320039069462846FEF784FD2815CDE96A
:103A20000004694628460294FEF77CFD002202212C
:103A30002520FFF795F92520FFF784F905B030BD63
:103A400000380140001002400008014090F8423068
:103A5000202B01D00220704721B11AB1002303634B
:103A600000F0A6BC0120704710B50949006809683C
:103A700088420BD1012207490548FFF7E7FF0548B7
:103A8000401E4078BDE8104001F07ABF10BD000034
:103A9000B0010020010000202DE9F843044690F811
:103AA00041001F4616460D46202802D00220BDE8E0
:103AB000F8837DB176B100206064212084F8410054
:103AC000FEF732FEA6848046E684A068B0F5805FEB
:103AD00002D003E00120EAE7206910B12E4600255C
:103AE0000EE000260CE08021204600F07CFCA0B90E
:103AF000AEB116F8010B21684860E08C401EE084EE
:103B0000E08C43464FF0000200970028EBD14FF0C5
:103B10004001204600F067FC30B10320C7E735F8CC
:103B2000020BC0F30800E6E7202084F841000020E3
:103B3000BDE77047FEE701684A69D24352050FD4DA
:103B40006FF480624A61002140F8301F20224273E6
:103B50008173026942F0040202610173012070471F
:103B6000002070472DE9F84F0446C06A1E46934670
:103B70000D4621680A6842F480620A60082807D06E
:103B8000012805D010F5803F02D0206B112804D108
:103B90002068016841F4807101604FF001195B46B3
:103BA000002249462046009600F0CCF84FF40078F9
:103BB00040B120680068C00501D5C4F840800320EA
:103BC000BDE8F88F2069DFF884A0B0F5804F0FD0F2
:103BD0000620216800EAD51747F0F0000861334657
:103BE0005A460AF10601204600F0F4F858BB03E0FB
:103BF000E8B240F001001CE02168E8B208613346F9
:103C00005A465146204600F0E5F8E0B9206841697F
:103C100081690091016841F4807101605B46002276
:103C200049462046009600F08DF80028C1D147F0A3
:103C3000F1002168086133465A465146204600F09B
:103C4000C9F80028BCD00120BAE70000020001003A
:103C5000F8B50446C06A1E460D461746082807D028
:103C6000012805D010F5803F02D0206B122804D126
:103C70002068016841F480710160134600224FF012
:103C800001112046009600F05DF840B12068006800
:103C9000C00502D54FF4007020640320F8BD2069F0
:103CA000B0F5804F0ED00620216800EAD51040F014
:103CB000F000086133463A460B49204600F08AF886
:103CC00078B902E005F0FE0000E0E8B22168086182
:103CD000054933463A46891F204600F07BF8002804
:103CE000DCD00120F8BD00000800010070B51646C8
:103CF0000D4604461EE02046FFF71DFF08B10120D7
:103D000070BD681C16D0FEF70FFD801BA84200D8BE
:103D100085B920684069C04340070BD5002044F8AE
:103D2000300F20216173A073216941F020012161CE
:103D30002073E4E720684069C0434007DBD40020DB
:103D400070BD00002DE9F047984617460D46044621
:103D5000C1F30746DDF820902AE000BFB8F1FF3F2D
:103D600026D0FEF7E1FCA0EB0901414502D8B8F1ED
:103D7000000F1DD12068012E16D0806925EA0000B1
:103D80000004000C12D00020B84211D1002044F8E9
:103D9000300F20216173A073216941F0200121615E
:103DA00020730120BDE8F0874069E7E70120EBE7D9
:103DB0002068012E0AD0806925EA00000004000C6A
:103DC00006D00020B842C9D00020EBE74069F3E7F5
:103DD0000120F7E72DE9F047984616460D460446C0
:103DE0004FF000094FF0200AC1F3074723E0206895
:103DF0004069C043400515D42068016841F4007152
:103E0000016021686FF480604861C4F8309084F8E4
:103E10003DA084F83E90216C41F00401216484F8B7
:103E20003C9021E0701C06D0FEF77EFCA0EB080061
:103E3000B04203D816B1012F1FD021E02068012F16
:103E400015D0806925EA00000004000C18D000BFDE
:103E500044F8309F84F80DA084F80E90216941F059
:103E60002001216184F80C900120BDE8F0874069B1
:103E700025EA00000004000CEAD12068406901E056
:103E80002068806925EA00000004000CAFD1ECE74F
:103E90002DE9F041002590460E460446202728E0F3
:103EA0004069C043C0060CD454F8301B6FF01000BA
:103EB000486144F810596777A577206A2062257712
:103EC00014E0FEF731FCA0EB0800B04200D886B940
:103ED00020684069C04340060BD544F8305F6773E3
:103EE000A573206940F02000206125730120BDE802
:103EF000F08120684169C9434906D1D40020F6E722
:103F000070B516460D4604461EE02046FFF713FE28
:103F100008B1012070BD681C16D0FEF705FC801B9F
:103F2000A84200D885B920684069C04300060BD577
:103F3000002044F8300F20216173A073216941F003
:103F4000200121612073E4E720684069C043000636
:103F5000DBD4002070BD00002DE9F04186B00024C4
:103F600024480094019402940394816941F0200153
:103F70008161816901F020010491816941F00401AE
:103F80008161816901F004010491816941F01001AE
:103F90008161816901F010010491816941F008019A
:103FA00081618069144F00F00800049000226021B4
:103FB0003846FEF7B3FBDFF844800022402140463C
:103FC000FEF7ACFB602001250226CDE90005CDE916
:103FD000024669463846FEF7A5FA4020CDE90005BD
:103FE000CDE9024669464046FEF79CFA06B0BDE8B8
:103FF000F081000000100240000801400010014064
:1040000010B586B0002417480094019402940394DC
:1040100004944FF08041059401604721C0E90114E8
:1040200040F2E731C0E9031480218161FFF78AF98A
:1040300008B172B6FEE74FF4805000906946094817
:10404000FFF718FA08B172B6FEE7049404A9054810
:104050000594FFF739F9002801D072B6FEE706B0E3
:1040600010BD000068010020FEE7FEE770477047C2
:10407000FEF710BE30B58FB028216846FCF744FA31
:1040800014210AA8FCF740FA01210804CDE9001028
:104090000024029402250491CDE907504FF4E0106A
:1040A00009906846FEF76AFF08B172B6FEE70F2076
:1040B000CDE90A054FF48060CDE90C4002210AA841
:1040C0000E94FEF77FFE002801D072B6FEE70FB017
:1040D00030BD70470148FFF73CBA0000680100207E
:1040E000F0B502681C4B1D4D1D4E1E4F1E4C4FF06F
:1040F000804C984209D0A04207D0604505D0A84224
:1041000003D0B04201D0B84204D122F0700E4A6808
:1041100042EA0E02984209D0A04207D0604505D07D
:10412000A84203D0B04201D0B84203D122F4407576
:10413000CA682A434D6922F080022A4302608A68D5
:10414000C2620A688262984201D0A04201D1096924
:10415000016301214161F0BD002C014000040040D9
:1041600000080040000C00400034014010B5846895
:1041700042EA032224F47F440A432243826010BDB2
:10418000826822F070020A4342F0070181607047A2
:1041900010B5036A046A24F001040462846924F0FF
:1041A000F00444EA021423F00A020A438461026222
:1041B00010BD10B5036A046A24F010040462846917
:1041C00023F0A00324F4704444EA023243EA0111CC
:1041D0008261016210BD10B5406A0021C185C184B1
:1041E000FFF78AFA10BD01680C3151E8002F22F464
:1041F000907241E80023002BF5D10168143151E899
:10420000002F22F0010241E80023002BF5D1016BC1
:10421000012909D101680C3151E8002F22F0100268
:1042200041E80023002BF5D1202180F84210002125
:104230000163704708B590F84210222901D002208E
:1042400008BD82684FF480539A4201D1016921B1BF
:10425000816A9A421BD04AB10AE00268816A5268B8
:10426000C2F308020A80816A891C08E0026972B1FF
:104270000268526802F07F020A70816A491C8162FA
:10428000C18D491E0904090CC18503D01BE00268D9
:104290005268F1E70168CA6822F02002CA6001682A
:1042A000CA6822F48072CA6001684A6922F0010279
:1042B0004A61202180F8421000214163026B012AEB
:1042C00003D0FFF7D1FB002008BD016301680C316A
:1042D00051E8002F22F0100241E80023002BF5D115
:1042E00001680A68D20602D50A6849680091818D82
:1042F000FFF701FAE7E7000070B5044600680169BE
:10430000E26821F44051114301612169A06808432A
:10431000616908432168CA6841F20C639A43024309
:10432000CA6020684169A26921F44071114341616A
:104330001E492068884202D1FEF7EAFD01E0FEF73F
:10434000D7FD00EBC00101EB001260686421800022
:10435000B2FBF0F3B3FBF1F36FF018067343B2FB5B
:10436000F0F5B2FBF0F605EB8305322303EB051500
:10437000B5FBF1F5B6FBF1F605F0F00505EB06151A
:10438000B2FBF0F6B2FBF0F0B0FBF1F06FF0180208
:10439000504306EB800003EB0010B0FBF1F0216806
:1043A00000F00F002844886070BD00000038014014
:1043B00081628285C28500214164222180F84210F9
:1043C000016921B10168CA6842F48072CA6001685B
:1043D0004A6942F001024A610068C16841F0200167
:1043E000C160002070472DE9F041984617460E46FF
:1043F0000446069D27E0681C25D02DB1FEF794F9F0
:10440000A0EB0800A8421ED920680C3050E8001F1D
:1044100021F4D07140E80012002AF5D12068143050
:1044200050E8001F21F0010140E80012002AF5D1F8
:10443000202084F8410084F84200002084F84000E5
:104440000320BDE8F0812068006836EA000004D04F
:104450000020B842CFD00020F3E70120F9E70000A8
:104460000148FFF74BB90000B0010020FEE749000A
:1044700050EAC12018BF04204A0D18BF40F00100C7
:1044800040F2FF72B2EB515F08BF40F0020001281A
:1044900008BF052070470907090E002804DB00F15A
:1044A000E02080F80014704700F00F0000F1E020D9
:1044B00080F8141D70472DE9F0414F1E00EBC70135
:1044C0000446D1E9000115461E4637F006020DD01C
:1044D0002A46334601F05CFF7F1E04EBC703D3E995
:1044E000002301F0ADFC37F00602F1D1022F25D0F8
:1044F000042F13D0062F18BFBDE8F0812A4633469B
:1045000001F046FFD4E90A2301F09AFC2A4633461B
:1045100001F03EFFD4E9082301F092FC2A4633461D
:1045200001F036FFD4E9062301F08AFC2A4633461F
:1045300001F02EFFD4E9042301F082FC2A46334621
:1045400001F026FFD4E9022301F07AFC2A46334623
:1045500001F01EFFD4E90023BDE8F04101F070BC7A
:10456000002213461046014901F026BD0000F03F2D
:1045700001F066BC002213461046114601F01CBD36
:1045800040F2013200204FF0E04102F093BB000006
:10459000024A0020110702F08DBB000001FDFFFF61
:1045A00030380A2801D201207047002070470000EF
:1045B000F0B5114A0388104D22F8643F43885380B8
:1045C00083889380C388D38084689460441834F8C7
:1045D000024C9481094CA1F10E0222800C22891E0A
:1045E00004E0865CAF18521C07F80C6C8A42F8DBBA
:1045F00058BA6080F0BD00007C020020200000203E
:104600000149486070470000A400002070B5110CFB
:10461000044649BA40F602030598A1F602029942FF
:1046200029D013DC202906D006DC102903D011295B
:1046300001D0122949D170BD2129FCD0B1F5006FFC
:10464000F9D0A1F5006101393FD110E00D2A3CD22B
:10465000DFE802F03B083B3B3B2D083B1C083B07D7
:104660000700E8E7007807282DD9062070BD0078FC
:10467000082826D827E00578072D22D8401C01F00D
:10468000F9FAC5EBC5012144498F09E00578072DEA
:1046900017D8401C01F0EEFAC5EBC5012144098F83
:1046A0000A0A42EA012189B281420AD30BE0017869
:1046B000072906D8401C01F0DDFA40F6C4118842F3
:1046C00001D9052070BD002070BD022070BD000022
:1046D00070B50A4D00242E1F09E07188884205D16B
:1046E000074955F8342001F172009047641C05EB2E
:1046F000C40080880028F0D170BD00002400002094
:104700007C02002030B5054687B00C46134801F006
:1047100055FA21462846FFF74BFF11490F480E2254
:1047200009887238CDE90101B0F870000B49ADF885
:1047300000000E3903A8FBF79AFE0DF10C0C074898
:104740009CE80E0000F0D2F8002804D107B0BDE8C4
:104750003040FFF7BDBF07B030BD0000EE020020C3
:10476000200000202DE9F047044601F027FAFF223F
:1047700032213A48FBF7C0FE20884FF6FF7501272B
:10478000374EA84202D17089208077706088A84295
:1047900002D1B0896080B77032223049201DFBF70A
:1047A000F7FD30B92E4932221431201DFBF75FFE90
:1047B000F77094F83600FF2803D1307884F836007B
:1047C0003771204600F0E4FB3046B246B6F812904E
:1047D000F679B0F810C08379C7899AF805200021CE
:1047E000C1EBC1002044B0F83880A84501D107874B
:1047F0000122B0F83A80A84502D1A0F83AC00123BE
:10480000B0F83C80A84502D1A0F83C900126491C94
:104810000829E5DB8AF807608AF806308AF805205F
:104820009AF80110504601290FD0817801290CD047
:10483000C178012909D09AF80400012805D0012A7D
:1048400003D0012B01D0012E06D12146BDE8F0474F
:104850006F22044800F04EB9BDE8F0875D030020E8
:10486000AC00002000A0000808B50AA001220068E2
:10487000009040210848FDF751FF01222021074800
:10488000FDF74CFF4FF496736A4608213E2001F075
:10489000F5F908BD000300000010014000080140C8
:1048A0001FB5022210496846069CFBF771FD70B9DE
:1048B0000D490222891C0DF10200FBF769FD30B998
:1048C000094902220C3103A8FBF762FD10B1012057
:1048D00004B010BD042102A801F078F9A04201D073
:1048E0000420F5E70020F3E78F0300200FB45449BC
:1048F0007CB50446DDE90B560020886001F05CF8C9
:10490000BDF82800ADF800000DF11C0C01959CE8E5
:104910000E002046FFF77AFE494C0DF11C0C483C76
:10492000207200969CE80F00FFF7BAFF6072227AAF
:1049300052EA000121D04349062A20D0052A32D06C
:10494000022A41D0012853D0032865D0042811D170
:10495000B4F86000C88632310E2201F17200FBF714
:1049600086FD38480E21A43001F03AF836A001F057
:1049700047F804207CBC5DF814FB0020FAE7B4F88B
:104980006400C8862F490E22323101F17200FBF714
:104990006EFD2C480E21A43001F022F834A001F065
:1049A0002FF80620E6E7B4F86200C88625490E22F3
:1049B000323101F17200FBF75AFD22480E21A4307A
:1049C00001F00EF838A023E0B4F85C00C8861D4959
:1049D0000E22323101F17200FBF749FD19480E2118
:1049E000A43000F0FDFF34A001F00AF80220C1E776
:1049F000B4F85A00C88613490E22323101F1720010
:104A0000FBF735FD0F480E21A43000F0E9FF2FA081
:104A100000F0F6FF0520ADE7B4F85E00C88609494E
:104A20000E22323101F17200FBF721FD05480E2103
:104A3000A43000F0D5FF2AA000F0E2FF032099E7A0
:104A4000F40000205D03002044617461204C656E19
:104A500067746820646F6573206E6F74206D617475
:104A60006368206D65737361676520747970650094
:104A7000436F6D6D616E642069732076616C69644B
:104A800020627574206465736972656420696E665E
:104A90006F726D6174696F6E20646F6573206E6FE5
:104AA0007420657369740000696E76616C696420B6
:104AB0006461746100000000556E6B6E6F77206D4D
:104AC000657373616765207479706500696E7661DE
:104AD0006C69642070726F746F636F6C000000000B
:104AE0004D65737361676520746F6F206C617267C9
:104AF0006500000070B514460D460646FDF7FEFC45
:104B0000304600F009F822462946304600F01EF8EB
:104B1000BDE87040FDF7A8BC00B585B004A90290BF
:104B200001200390002000906846FDF749FC05B085
:104B300000BD30B5002306E0C458CC54240ACD187B
:104B40009B1C6C709BB29342F6D330BD2DE9F041B3
:104B500015460E460746002408E030193919028828
:104B60000120D30FFDF78AFCA41CA4B2AC42F4D3FD
:104B7000BDE8F08170B5044601F020F81B4840F60E
:104B80000861818094F8361049008160083000F097
:104B900095F900F011FF164A02F14001D2F83200F7
:104BA0001064D2F836005064D2F83A0090640020C5
:104BB00008E000BFC0EBC005254401EB4003AD8F0A
:104BC0009D81401C94F836308342F3DCD8B201EB6F
:104BD0004000D18F818194F836000E2101EB400115
:104BE000BDE870400248403000F0FABEF4000020FA
:104BF0005D03002010B5044600F0E0FF10484FF4BC
:104C0000885181804FF00071816000F0D5FEA01CBA
:104C100000F016FF0B4951F8320FC1F80E0048683A
:104C2000C1F812008868C1F8160060884883888936
:104C3000888304481021BDE81040403000F0D0BE09
:104C4000F40000205D03002010B5044600F0B6FF1C
:104C50000E484FF4805181804903816000F0ACFE22
:104C60000B4951F8320FC1F80E004868C1F8120024
:104C70008868C1F81600208848838889888304489A
:104C80001021BDE81040403000F0AABEF400002022
:104C90005D03002070B50D46044600F08FFF2848E4
:104CA000297840F6080282809205264D8260B9B1CB
:104CB00055F8320FC5F80E006868C5F81200A868EC
:104CC000C5F81600C1EBC10020441021008F688395
:104CD000A889A883BDE870401A48403000F080BE23
:104CE00094F83610490081601548083000F0E6F865
:104CF00000F062FED5F832002864D5F8360068640A
:104D0000D5F83A00A8640F490020403108E000BF00
:104D1000C0EBC003234401EB40021B8F9381401C76
:104D200094F836208242F3DCD0B201EB4000E98FE8
:104D3000818194F836000E2101EB4001CAE70000A2
:104D4000F40000205D03002070B50D46044600F01D
:104D500035FF2848297840F6083282804FF00072EB
:104D6000254D8260B9B155F8320FC5F80E0068685C
:104D7000C5F81200A868C5F81600C1EBC1002044B0
:104D80001021408F6883A889A883BDE870401A4825
:104D9000403000F025BE94F8361049008160154877
:104DA000083000F08BF800F007FED5F832002864D8
:104DB000D5F836006864D5F83A00A8640E4900209A
:104DC000403107E0C0EBC003234401EB40025B8F9E
:104DD0009381401C94F836208242F3DCD0B201EB80
:104DE0004000E98F818194F836000E2101EB4001EB
:104DF000CBE70000F40000205D03002010B504465E
:104E000000F0DCFE0F48082181804905816000F038
:104E1000D3FD0D49D1F832000864D1F8360048645A
:104E2000D1F83A00886494F8360081F84C00C88FB5
:104E3000A1F84D0004480F21BDE81040403000F0BB
:104E4000CFBD0000F40000205D03002070B50546D2
:104E500000F0B4FE11484FF4885181804FF0485162
:104E6000816000F0A9FD0E4C3222291DD4F83200D9
:104E70002064D4F836006064D4F83A00A06404F1E9
:104E80004C00FBF7F4FAE08FA4F87E0004F1400038
:104E9000BDE87040402100F0A3BD0000F4000020F8
:104EA0005D03002010B5022100F090FE80B210BD1D
:104EB0000148FFF757BC0000EE020020016809BA64
:104EC00001607047FDF7EEFEFFF7D4F8FFF744F8F6
:104ED00027482649002401604FF4E131C0E901145C
:104EE0000C21C460C0E904418461C461FEF73CFD4B
:104EF00008B172B6FEE7FFF783F81D481D499C38DC
:104F000001601D49C0E901144FF48041C0E903412B
:104F100044618461C4610462FDF70CFC08B172B69F
:104F2000FEE7134800F066FD11489C38FFF768FB68
:104F30000F48012211A19C38FDF7B2F812494860D0
:104F4000FDF79FF8012240211048FDF7E7FBFFF72E
:104F50008BFCFFF7ADFF0C490122491C0448FEF70A
:104F600075FD00BF00F028FFFCE70000003801409D
:104F7000B001002000540040A086010074657374E5
:104F80002064657669636500000000200008014028
:104F90000021C1EBC1034A1C0344491C83F837209C
:104FA0000829F6DB704700002DE9F04D1D460C4640
:104FB00098B0174621F0004123F00043002814BFA9
:104FC0004FF0010C4FF0000C0CEB440CFE4A0CEBC4
:104FD00002064FEA620C66452BD33E0018BF01263D
:104FE00006EB45061644F94A964222D3F84A53EA9C
:104FF000070C02D0944205D148B918B000201146E0
:10500000BDE8F08D002808BF4FF0000C01D04FF034
:10501000010C0CEB440212F5001F0AD8002F14BF3C
:105020004FF0010C4FF0000C0CEB450212F5001F85
:1050300007D918B03A462B462146BDE8F04DFFF798
:1050400097BA0022DFF88CA3002CB8BF534526DAAC
:10505000DFF884C36345A8BF022220DADFF870C3FB
:105060009C451CDCDFF874C30CEB235CBCF1140F13
:1050700008DDCCF1340627FA06FC0CFA06F6BE422F
:105080000DD108E05FB9CCF1140623FA06FC0CFA46
:1050900006F69E4203D10CF00102C2F1020251EA6F
:1050A000000C19D1002D17DA002C18BF022A01D0EC
:1050B000012A07D00220FBF7CFFA18B0BDE8F04D67
:1050C000FFF74EBA0220FBF7C7FAFFF749FA18B00C
:1050D00081F00041BDE8F08DB7F1000C6CD1534573
:1050E00025D104F1804212F5801201BF0028002072
:1050F000B74918B008BFBDE8F08DB548884207DC55
:10510000002DA1BF6046294618B0BDE8F08D07E02C
:10511000281E05DA80F0004118B06046BDE8F08D29
:10512000AF497944D1E9000118B0BDE8F08DDFF84E
:10513000A0C2634525D1002D1FDA19B1514512D106
:10514000D8B909E0002840F0EC82A24A214618B004
:1051500062F31E01BDE8F08D0020214618B060F317
:105160001E01BDE8F08D08DA18B02346BDE8F04D09
:1051700002460020614600F01FBF18B02146BDE87E
:10518000F08D514518DAB5F1804F0DD0A5F1005CD6
:10519000BCF1FF5C10D1B4F1000C0DDB18B061461E
:1051A000BDE8F04D00F0E4BC234618B00246BDE86F
:1051B000F04D194601F0ECB8060024F0004C3BD14C
:1051C000D9B1514533D1002C06DD002DA1BF0020FF
:1051D000514618B0BDE8F08D002C01DD002D1BDB21
:1051E000002C13DA002D11DB012A4FF0000014BF50
:1051F00078497C4918B0BDE8F08D022A18BF002C10
:105200000AD0012A08D1002C06DA0AE0002CB8BF27
:10521000002D11DA012A04D0002018B00146BDE8A3
:10522000F08D18B000204FF00041BDE8F08DA1F1E5
:105230004050B0F17F601AD0012000EBE47050EADA
:10524000020421D0624C521E4FF0000B104304BFE9
:105250004FF0000B644C654883427CDD644A65482E
:1052600093421FDD884217DB002D25DB37E0002C41
:1052700000DA4AB1022A0CBF01204FF0FF3018B00B
:10528000BDE8F04D01F01DB80120FBF7E5F918B0BD
:10529000BDE8F04DFFF76EB94D4A8A4202DC002DA1
:1052A0000ADC1CE0814202DA002D18DA04E0484BE7
:1052B000994220DD002D12DD0220FBF7CDF9FFF72A
:1052C0005FF905460E46002253465846214601F036
:1052D0005FF818B066F31E012846BDE8F08D022085
:1052E000FBF7BAF9FFF754F90A46214618B062F302
:1052F0001E01BDE8F08D00223046614601F06EFAD5
:1053000080460E466FF0010201F0D4FC4FF055329A
:10531000394B01F071F94246334601F039F8002269
:10532000364B01F069F982464246334604911046F5
:10533000194601F02DF85246049B01F029F88A46DF
:1053400000904FF0C0422E4B4046314601F020F80D
:105350002C4A2B4B00E027E0CDE90601514600988E
:1053600001F016F882460191274A284B4046314603
:1053700001F00EF85246019B01F030FA82460B46CE
:1053800002460591DDE9060100F05AFDDDE906233C
:1053900000268846304601F021FA5246059B01F06E
:1053A0002BF9024600F07EB90020B1F5801F07DA24
:1053B00035223046614601F07DFC06466FF0340030
:1053C00000EB215024E00000FFFF1F00FFFF0F0053
:1053D0000000F03F0000F07F0000404301FCFFFFB1
:1053E0001A1D00000000F0FF0000F0BF0000E041C7
:1053F0000000F043FFFFEF3F5555D53F0000E03F71
:105400004715F73FFE822B6544DF5DF80BAE543E37
:10541000A0F2FF300190C1F3130040F07F6141F032
:1054200040510291FE498842D8BF002004DDFD4969
:105430008142C8BF012001DD0D9008E000200D90E1
:105440000198401C01900298A0F5801002900299EA
:10545000F54878440B910D9900EBC100D0E9002389
:105460000F9330460A920B9901F0B8F9CDE9060185
:10547000DDE90A2130460F9B00F0E2FC02460B46B4
:105480000020EA4900F098FD059102460B46009085
:10549000DDE9060100F07CFF1490E5488A464FF0F4
:1054A000000878440299006812904FF0005040EADA
:1054B00061010D980F9B01EB804000F500210991DF
:1054C0000A9A129801F08AF932460B9B01F094F87F
:1054D0004246534600F05CFF064602914046514664
:1054E000099B129A00F054FFDDE9062301F084F8CD
:1054F0003246029B01F072F9059B009A00F048FFCA
:105500000091149A049053461046194600F040FF4B
:1055100006460246C7480B46029106217844FEF72C
:10552000CAFFCDE90510029B32461046194600F02D
:105530002FFFDDE9053200F02BFF059106465346AB
:1055400040461946149A00F07BFC009B049A00F038
:105550001FFF3246059B00F073FCCDE90510424663
:1055600053461046194600F013FF0022B24B029139
:105570000A9000F065FCDDE9053200F061FC0E46A2
:105580004246AD4B404601F029F9029B0A9A01F0D0
:1055900025F9DDE9053201F02FF8424602910A9023
:1055A00033461046514600F0F3FECDE9060153465E
:1055B000149A02990A9800F0EBFE8A46029033464C
:1055C00042460099049800F0E3FE5346029A00F028
:1055D00037FC82460B4602460591DDE9060100F0E4
:1055E0002FFCDDE9062300208846064601F0F6F888
:1055F0005246059B01F000F8824609914FF0604247
:105600008E4B3046414600F0C3FE049006918C4A12
:105610008A4B5046099900F0BBFE82460291894AA6
:10562000894B3046414600F0B3FE5246029B00F0E3
:1056300007FC864B7B440D9A03EBC203D3E900239E
:1056400000F0FEFB0E900791019800F03AFE0591E4
:10565000DDE9061382460E9A049800F0F1FB7C4ABD
:105660007A440D9B02EBC303D3E90023009302921B
:1056700000F0E6FB5246059B00F0E2FB0026884660
:1056800052463046059B01F0A9F8009B029A01F0B2
:10569000A5F8069B049A01F0A1F8079B0E9A00F06A
:1056A000ABFF024600200B4602903846294600F028
:1056B0006FFE824601912B4638461946029A01F048
:1056C0008DF83246434600F063FE5246019B00F0DF
:1056D000B7FB07468A46324643462946029800F001
:1056E00057FE05460E463A46534600F0A9FB594A76
:1056F0008846914221DBA8EB020353EA000210D155
:105700002A46334601F06AF8CDE90401524A534B68
:105710003846514600F094FBDDE9042300F036FFE3
:1057200021D20220FAF798FFFEF72AFF0A46214607
:1057300018B062F31E01BDE8F08D494B28F000421D
:105740009A4210D3474A08EB020353EA00027FF45F
:10575000C6AD2A46334601F041F83A46534600F0BA
:1057600015FF7FF6BCAD0022019228F000403E49B3
:105770003E4A01EB2051824223DA481C4FF480114B
:1057800021FA00F040443A4AC0F30A517A44394BB6
:10579000A1F2FF31CB4020EA0303C0F3130040F431
:1057A0008010C1F11401C84012680190B8F1000FD7
:1057B000BCBF404201902846314601F00FF8054633
:1057C0000E462A4633463846514600F039FB4FF024
:1057D00000084246284B4046059100F0D9FDCDE92E
:1057E0000601264A264B4046059900F0D1FD00915E
:1057F00002902A4633464046059900F0EFFF3A46AC
:10580000534600F0F9FE1F4A1F4B00F0C1FD009BFC
:10581000029A00F015FB0746884602460B4635E023
:105820008E9803007AB60B001A1900000000F03FB2
:105830009A190000801800000000084009C7EE3FD8
:10584000FD033ADCF5015B14E02F3EBE5817000063
:105850001C17000000009040FE822B654715973C06
:1058600000CC904000346F3F01FCFFFF0000E03FA0
:10587000B0160000FFFF0F00432EE63F396CA80C66
:10588000615C20BEEF39FAFE422EE63FDDE90601FB
:1058900000F0D6FADDE9062305460E4600F09EFF2D
:1058A0003A46434600F0A8FE0F462A46334600908B
:1058B0001046194600F06CFD824602462E48884686
:1058C0000B4605217844FEF7F6FD5246434600F0AC
:1058D0005FFD2A46334600F08FFE80468A463B46EF
:1058E00028463146009A00F053FD3B46009A00F0EE
:1058F000A7FA0691009000224FF08043404651469F
:1059000000F06CFF0F460C90424653462846314645
:1059100000F03EFD3B460C9A00F04EFB069B009AC1
:1059200000F05CFF2A46334600F058FF0022134B7C
:1059300000F062FE054601980E4601EB0051081585
:10594000002810DC28463146019A01F0B3F9FEF731
:105950008EFD042808BFFEF71BFE28463146019A3B
:1059600001F0A8F905460B4618B02A4658462146CC
:10597000BDE8F04D00F00CBD081500000000F03F40
:1059800070B506460848002500684562074C6088E7
:1059900010B90548FDF720FD0548618846540548C3
:1059A000491C6180057070BD680100201C0000204A
:1059B00018020020000000200848074930F8482F4E
:1059C0004A8642888A8682880A878268C1F83A2095
:1059D0008089C887704700005D030020AC0000206C
:1059E0008AB2014602484FF496730068FEF754B835
:1059F00018000020014908607047000018000020CE
:105A00000FB410B59AB01DAA68461C99FAF7AEFCFF
:105A10006846FAF70DFD084C82B264236946206897
:105A2000FEF73AF86423012204A12068FEF734F857
:105A30001AB010BC5DF814FB180000200A0000002A
:105A400001880A0242EA11210180704770B50546BB
:105A5000002406E0C4EBC40028443C30FFF7F0FF0C
:105A6000641C95F83600A042F4DC2946BDE870407D
:105A70006F220148FFF73EB800A0000870B50D4640
:105A8000044600F09BF8288820802146BDE870403D
:105A90006F220148FFF72EB800A0000870B50D4630
:105AA000044600F08BF8287898B1C0EBC000204481
:105AB000B5F8011001872146BDE870406F22074804
:105AC000FFF718B8C0EBC0012144B5F801200A87E0
:105AD000401C94F836108142F4DCECE700A000088A
